:100CBE0002430000023F0000020A0000020C000086
:100CCE00024B0000024D00000247000002490007DF
:100CDE000C100000000000000000000000000245A3
:100CEE000000101E3F065B4F666D7D077F6F777CA1
:040CFE00395E797171
:100D0300E4FFFE7D017C000DBD00010CBC01F8BDBC
:0D0D1300F5F50FBF00010EEF640B4E70E60A
:010D200022B0
:100C6200759850758921758C3C758AB0758DFDD249
:100C72008ED28CD2ACD2AFD2A9C2A7E540453F609A
:100C8200FA753F00754001E539B537EFE538B536FD
:100C9200EAE542B51D13E541B51C0EE50FB535DB9E
:100CA200E50EB534D6D2A780D2E542B533CDE541C3
:0C0CB200B532C8C2A7E4F53FF54080BF92
:100BFD00EF24D0B40A00505C900C1375F003A4C51B
:100C0D008325F0C58373020C31020C35020C3A02B8
:100C1D000C3F020C44020C49020C4E020C53020C08
:100C2D0058020C5DE4FEFF227E007F01227E007FD4
:100C3D0002227E007F03227E007F04227E007F053C
:100C4D00227E007F06227E007F07227E007F082203
:050C5D007E007F09226A
:030023000209CD02
:1009CD00C0E0C0F0C083C082C0D075D000C000C0F0
:1009DD0004C005C006C007209803020AF5C2988519
:1009ED00993EE54445437014AF3E120BFD8E0A8FC0
:1009FD000B0544E544701E0543020A8EE54464016F
:100A0D0045437013AF3E120BFD8E0C8F0D0544E563
:100A1D004470020543806AE544640245437013AF98
:100A2D003E120BFD8E4B8F4C0544E5447053054330
:100A3D00804FE544640345437013AF3E120BFD8EAA
:100A4D004D8F4E0544E544703805438034E54464CC
:100A5D000445437013AF3E120BFD8E478F4805447E
:100A6D00E544701D05438019E54464054543701147
:100A7D00AF3E120BFD8E498F4A0544E544700205C9
:100A8D0043E54464064543705FAE0AAF0BFC7D0A37
:100A9D00120B96E50D2FF52FE50C3EF52EAE4BAF57
:100AAD004C120B96E54E2FF531E54D3EF530AE4728
:100ABD00AF48120B96E54A2FF53BE5493EF53A85D1
:100ACD002E36852F3785301C85311DE5312401F5F6
:100ADD0033E43530F532853A34853B357543007551
:100AED004400753F00754001D007D006D005D004F5
:0D0AFD00D000D0D0D082D083D0F0D0E03235
:03000B00020800E8
:10080000C0E0C0F0C0D075D000C000C004C005C0BA
:1008100006C007758C3C758AB0E5464545701A746C
:100820001E2511F8E6F590C2A5120D03D2A50546C6
:10083000E546702405450208DBE546640145457040
:100840001A741E2513F8E6F590C2A4120D03D2A463
:100850000546E546700205450208DBE546640245AB
:10086000457019741E2515F8E6F590C2A3120D0304
:10087000D2A30546E54670630545805FE5466403FF
:1008800045457019741E2517F8E6F590C2A2120DA1
:1008900003D2A20546E54670420545803EE5466422
:1008A0000445457019741E2519F8E6F590C2A11289
:1008B0000D03D2A10546E54670210545801DE5469C
:1008C000640545457015741E251BF8E6F590C2A019
:1008D000120D03D2A0754500754600C28D053DE599
:1008E0003D7002053C758CB0758AB0E53D641445D9
:1008F0003C7009F508750901F53CF53DE509640111
:100900004508700CF508F509050FE50F7002050E96
:10091000E50F643C450E7016F50EF50FF510F51158
:10092000F512F5130542E54270220541801EAE0E18
:10093000AF0F7C007D0A120BA88C108D11AE0EAF8C
:100940000F7C007D0A120BA88E128F13E542643CC7
:1009500045417016F541F542F514F515F516F517F4
:100960000539E53970220538801EAE41AF427C0062
:100970007D0A120BA88C148D15AE41AF427C007D10
:100980000A120BA88E168F17E53964184538700EB9
:10099000F538F539F518F519F51AF51B801EAE383E
:1009A000AF397C007D0A120BA88C188D19AE38AFB8
:1009B000397C007D0A120BA88E1A8F1BD007D00637
:0D09C000D005D004D000D0D0D0F0D0E0326F
:03000000020B0AE6
:0C0B0A00787FE4F6D8FD75814E020B5197
:100B9600EF8DF0A4A8F0CF8CF0A428CE8DF0A42E73
:020BA600FE222D
:100BA800BC000BBE0029EF8DF084FFADF022E4CC31
:100BB800F875F008EF2FFFEE33FEEC33FCEE9DECFA
:100BC800984005FCEE9DFE0FD5F0E9E4CEFD22ED40
:100BD800F8F5F0EE8420D21CFEADF075F008EF2F8A
:100BE800FFED33FD4007985006D5F0F222C398FD7B
:050BF8000FD5F0EA2218
:100B1600020C62E493A3F8E493A34003F68001F287
:100B260008DFF48029E493A3F85407240CC8C333E0
:100B3600C4540F4420C8834004F456800146F6DFAF
:100B4600E4800B0102040810204080900CBEE47E75
:100B5600019360BCA3FF543F30E509541FFEE493A4
:100B6600A360010ECF54C025E060A840B8E493A36B
:100B7600FAE493A3F8E493A3C8C582C8CAC583CA96
:100B8600F0A3C8C582C8CAC583CADFE9DEE780BE4E
:010D020000F0
:00000001FF
